{
  "contractName": "HealthCLMEval",
  "abi": [
    {
      "anonymous": false,
      "inputs": [
        {
          "indexed": false,
          "internalType": "string",
          "name": "response",
          "type": "string"
        }
      ],
      "name": "LogResponse",
      "type": "event"
    },
    {
      "constant": false,
      "inputs": [
        {
          "internalType": "string",
          "name": "medicalResearcherId",
          "type": "string"
        },
        {
          "internalType": "string",
          "name": "insurerId",
          "type": "string"
        },
        {
          "internalType": "string",
          "name": "insuredId",
          "type": "string"
        },
        {
          "internalType": "string",
          "name": "insuredBankAccount",
          "type": "string"
        },
        {
          "internalType": "string",
          "name": "examinationId",
          "type": "string"
        },
        {
          "internalType": "string",
          "name": "examinationTopic",
          "type": "string"
        },
        {
          "internalType": "string",
          "name": "examinationSubTopic",
          "type": "string"
        },
        {
          "internalType": "string",
          "name": "examinationPrice",
          "type": "string"
        },
        {
          "internalType": "string",
          "name": "examinationSummary",
          "type": "string"
        }
      ],
      "name": "evaluate",
      "outputs": [
        {
          "internalType": "string",
          "name": "",
          "type": "string"
        }
      ],
      "payable": false,
      "stateMutability": "nonpayable",
      "type": "function"
    },
    {
      "constant": false,
      "inputs": [
        {
          "components": [
            {
              "internalType": "string",
              "name": "medicalResearcherId",
              "type": "string"
            },
            {
              "internalType": "string",
              "name": "insurerId",
              "type": "string"
            },
            {
              "internalType": "string",
              "name": "insuredId",
              "type": "string"
            },
            {
              "internalType": "string",
              "name": "insuredBankAccount",
              "type": "string"
            },
            {
              "internalType": "string",
              "name": "examinationId",
              "type": "string"
            },
            {
              "internalType": "string",
              "name": "examinationTopic",
              "type": "string"
            },
            {
              "internalType": "string",
              "name": "examinationSubTopic",
              "type": "string"
            },
            {
              "internalType": "string",
              "name": "examinationPrice",
              "type": "string"
            },
            {
              "internalType": "string",
              "name": "examinationSummary",
              "type": "string"
            }
          ],
          "internalType": "struct HealthCLMEval.HealthRq",
          "name": "recordData",
          "type": "tuple"
        }
      ],
      "name": "process",
      "outputs": [
        {
          "internalType": "string",
          "name": "",
          "type": "string"
        }
      ],
      "payable": false,
      "stateMutability": "nonpayable",
      "type": "function"
    }
  ],
  "bytecode": "0x608060405234801561001057600080fd5b5061105a806100206000396000f3fe608060405234801561001057600080fd5b50600436106100365760003560e01c8063c6276ac61461003b578063f290bee31461006b575b600080fd5b61005560048036036100509190810190610a2c565b61009b565b6040516100629190610e17565b60405180910390f35b61008560048036036100809190810190610bca565b61014d565b6040516100929190610e17565b60405180910390f35b60606100a5610784565b8a816000018190525089816020018190525088816040018190525087816060018190525082816101000181905250838160e00181905250858160a00181905250848160c0018190525086816080018190525060606101028261014d565b90507f3335dbbac7c4694982b38ce1b698602b753676e1513d8c14259464d0dbd6e208816040516101339190610e17565b60405180910390a180925050509998505050505050505050565b60606040518060400160405280600881526020017f31303030303030320000000000000000000000000000000000000000000000008152506040516020016101959190610d66565b6040516020818303038152906040528051906020012082600001516040516020016101c09190610d66565b6040516020818303038152906040528051906020012014610288576040518060400160405280601481526020017f7b2022636c61696d4576616c756174696f6e223a0000000000000000000000008152506040518060400160405280601f81526020017f20225061796d656e742072656a6563746564222c2022726561736f6e223a20008152506040518060600160405280603e8152602001610fab603e913960405160200161027293929190610d7d565b604051602081830303815290604052905061077f565b6040518060400160405280600881526020017f32303030303030310000000000000000000000000000000000000000000000008152506040516020016102ce9190610d66565b6040516020818303038152906040528051906020012082604001516040516020016102f99190610d66565b60405160208183030381529060405280519060200120146103c1576040518060400160405280601481526020017f7b2022636c61696d4576616c756174696f6e223a0000000000000000000000008152506040518060400160405280601f81526020017f20225061796d656e742072656a6563746564222c2022726561736f6e223a2000815250604051806060016040528060258152602001610f86602591396040516020016103ab93929190610d7d565b604051602081830303815290604052905061077f565b6040518060400160405280600781526020017f484c545f545354000000000000000000000000000000000000000000000000008152506040516020016104079190610d66565b604051602081830303815290604052805190602001208260a001516040516020016104329190610d66565b60405160208183030381529060405280519060200120146104fa576040518060400160405280601481526020017f7b2022636c61696d4576616c756174696f6e223a0000000000000000000000008152506040518060400160405280601f81526020017f20225061796d656e742072656a6563746564222c2022726561736f6e223a20008152506040518060600160405280602f8152602001610fe9602f91396040516020016104e493929190610d7d565b604051602081830303815290604052905061077f565b6040518060400160405280600781526020017f5345585f444953000000000000000000000000000000000000000000000000008152506040516020016105409190610d66565b604051602081830303815290604052805190602001208260c0015160405160200161056b9190610d66565b6040516020818303038152906040528051906020012014801561061357506040518060400160405280600481526020017f54525545000000000000000000000000000000000000000000000000000000008152506040516020016105cf9190610d66565b604051602081830303815290604052805190602001208261010001516040516020016105fb9190610d66565b60405160208183030381529060405280519060200120145b156106c5576040518060400160405280601481526020017f7b2022636c61696d4576616c756174696f6e223a0000000000000000000000008152506040518060400160405280601f81526020017f20225061796d656e742072656a6563746564222c2022726561736f6e223a2000815250604051806080016040528060428152602001610f44604291396040516020016106af93929190610d7d565b604051602081830303815290604052905061077f565b606082606001516040516020016106dc9190610ddf565b60405160208183030381529060405290506040518060400160405280601481526020017f7b2022636c61696d4576616c756174696f6e223a0000000000000000000000008152506040518060400160405280601481526020017f20225061796d656e7420617070726f766564222c0000000000000000000000008152508260405160200161076c93929190610dae565b6040516020818303038152906040529150505b919050565b6040518061012001604052806060815260200160608152602001606081526020016060815260200160608152602001606081526020016060815260200160608152602001606081525090565b600082601f8301126107e157600080fd5b81356107f46107ef82610e66565b610e39565b9150808252602083016020830185838301111561081057600080fd5b61081b838284610ef0565b50505092915050565b600082601f83011261083557600080fd5b813561084861084382610e92565b610e39565b9150808252602083016020830185838301111561086457600080fd5b61086f838284610ef0565b50505092915050565b6000610120828403121561088b57600080fd5b610896610120610e39565b9050600082013567ffffffffffffffff8111156108b257600080fd5b6108be848285016107d0565b600083015250602082013567ffffffffffffffff8111156108de57600080fd5b6108ea848285016107d0565b602083015250604082013567ffffffffffffffff81111561090a57600080fd5b610916848285016107d0565b604083015250606082013567ffffffffffffffff81111561093657600080fd5b610942848285016107d0565b606083015250608082013567ffffffffffffffff81111561096257600080fd5b61096e848285016107d0565b60808301525060a082013567ffffffffffffffff81111561098e57600080fd5b61099a848285016107d0565b60a08301525060c082013567ffffffffffffffff8111156109ba57600080fd5b6109c6848285016107d0565b60c08301525060e082013567ffffffffffffffff8111156109e657600080fd5b6109f2848285016107d0565b60e08301525061010082013567ffffffffffffffff811115610a1357600080fd5b610a1f848285016107d0565b6101008301525092915050565b60008060008060008060008060006101208a8c031215610a4b57600080fd5b60008a013567ffffffffffffffff811115610a6557600080fd5b610a718c828d01610824565b99505060208a013567ffffffffffffffff811115610a8e57600080fd5b610a9a8c828d01610824565b98505060408a013567ffffffffffffffff811115610ab757600080fd5b610ac38c828d01610824565b97505060608a013567ffffffffffffffff811115610ae057600080fd5b610aec8c828d01610824565b96505060808a013567ffffffffffffffff811115610b0957600080fd5b610b158c828d01610824565b95505060a08a013567ffffffffffffffff811115610b3257600080fd5b610b3e8c828d01610824565b94505060c08a013567ffffffffffffffff811115610b5b57600080fd5b610b678c828d01610824565b93505060e08a013567ffffffffffffffff811115610b8457600080fd5b610b908c828d01610824565b9250506101008a013567ffffffffffffffff811115610bae57600080fd5b610bba8c828d01610824565b9150509295985092959850929598565b600060208284031215610bdc57600080fd5b600082013567ffffffffffffffff811115610bf657600080fd5b610c0284828501610878565b91505092915050565b6000610c1682610ec9565b610c208185610ed4565b9350610c30818560208601610eff565b610c3981610f32565b840191505092915050565b6000610c4f82610ec9565b610c598185610ee5565b9350610c69818560208601610eff565b80840191505092915050565b6000610c8082610ebe565b610c8a8185610ee5565b9350610c9a818560208601610eff565b80840191505092915050565b6000610cb3600383610ee5565b91507f22207d00000000000000000000000000000000000000000000000000000000006000830152600382019050919050565b6000610cf3600183610ee5565b91507f22000000000000000000000000000000000000000000000000000000000000006000830152600182019050919050565b6000610d33600d83610ee5565b91507f22746f4163636f756e74223a20000000000000000000000000000000000000006000830152600d82019050919050565b6000610d728284610c75565b915081905092915050565b6000610d898286610c75565b9150610d958285610c75565b9150610da18284610c75565b9150819050949350505050565b6000610dba8286610c75565b9150610dc68285610c75565b9150610dd28284610c44565b9150819050949350505050565b6000610dea82610d26565b9150610df582610ce6565b9150610e018284610c75565b9150610e0c82610ca6565b915081905092915050565b60006020820190508181036000830152610e318184610c0b565b905092915050565b6000604051905081810181811067ffffffffffffffff82111715610e5c57600080fd5b8060405250919050565b600067ffffffffffffffff821115610e7d57600080fd5b601f19601f8301169050602081019050919050565b600067ffffffffffffffff821115610ea957600080fd5b601f19601f8301169050602081019050919050565b600081519050919050565b600081519050919050565b600082825260208201905092915050565b600081905092915050565b82818337600083830152505050565b60005b83811015610f1d578082015181840152602081019050610f02565b83811115610f2c576000848401525b50505050565b6000601f19601f830116905091905056fe224e6f207061796d656e7420666f7220706f73697469766520726573756c74206f6e20706f73697469766520726573756c747320666f72205345585f44495322207d22496e7375726564206e6f7420636c69656e74206f662074686520636f6d70616e7922207d226d65646963616c526573656172636865724964206e6f20696e2074727573746564206d65646963616c207265736561726368206964206c69737422207d224578616d696e6174696f6e206973206e6f74206120746f706963206f66207468697320636f6e747261637422207da365627a7a723158207f3fc92a203a82c33f24338f932eabddfe1d5d73803b32df6f05b1e6e9999b6c6c6578706572696d656e74616cf564736f6c63430005100040",
  "source": "pragma solidity >= 0.5.0 < 0.7.0;\r\npragma experimental ABIEncoderV2;\r\n\r\ncontract HealthCLMEval {\r\n    string constant _researcherId = \"10000002\";\r\n    string constant _insuredId = \"20000001\";\r\n    string constant _examinationTopic = \"HLT_TST\";\r\n    string constant _examinationSubTopic = \"SEX_DIS\";\r\n    string constant examinationSummaryPositive = \"TRUE\";\r\n    string constant clmEvaluation = \"{ \\\"claimEvaluation\\\":\";\r\n    string constant forPayment = \" \\\"Payment approved\\\",\";\r\n    string constant noPayment = \" \\\"Payment rejected\\\", \\\"reason\\\": \";\r\n    string constant medIdResMismatch = \"\\\"medicalResearcherId no in trusted medical research id list\\\" }\";\r\n    string constant noClient = \"\\\"Insured not client of the company\\\" }\";\r\n    string constant noTopic = \"\\\"Examination is not a topic of this contract\\\" }\";\r\n    string constant positiveSexRes = \"\\\"No payment for positive result on positive results for SEX_DIS\\\" }\";\r\n\r\n    struct HealthRq{\r\n        string medicalResearcherId;\r\n        string insurerId;\r\n        string insuredId;\r\n        string insuredBankAccount;\r\n        string examinationId;\r\n        string examinationTopic;\r\n        string examinationSubTopic;\r\n        string examinationPrice;\r\n        string examinationSummary;\r\n    }\r\n\r\n    function evaluate(string memory medicalResearcherId,string memory insurerId,  string memory insuredId, string memory insuredBankAccount,\r\n        string memory examinationId, string memory examinationTopic, string memory examinationSubTopic, string memory examinationPrice,\r\n        string memory examinationSummary)public returns(string memory){\r\n        HealthRq memory rq;\r\n        rq.medicalResearcherId = medicalResearcherId;\r\n        rq.insurerId = insurerId;\r\n        rq.insuredId = insuredId;\r\n        rq.insuredBankAccount = insuredBankAccount;\r\n        rq.examinationSummary = examinationSummary;\r\n        rq.examinationPrice = examinationPrice;\r\n        rq.examinationTopic = examinationTopic;\r\n        rq.examinationSubTopic = examinationSubTopic;\r\n        rq.examinationId = examinationId;\r\n        string memory rs = process(rq);\r\n        emit LogResponse(rs);\r\n        return rs;\r\n    }\r\n\r\n    function process(HealthRq memory recordData) public returns(string memory) {\r\n\r\n        if(keccak256(abi.encodePacked(recordData.medicalResearcherId)) != keccak256(abi.encodePacked(_researcherId))){\r\n            return string(abi.encodePacked(clmEvaluation, noPayment, medIdResMismatch));\r\n        }\r\n        if(keccak256(abi.encodePacked(recordData.insuredId)) != keccak256(abi.encodePacked(_insuredId))){\r\n            return string(abi.encodePacked(clmEvaluation, noPayment, noClient));\r\n        }\r\n        if(keccak256(abi.encodePacked(recordData.examinationTopic)) != keccak256(abi.encodePacked(_examinationTopic))){\r\n            return string(abi.encodePacked(clmEvaluation, noPayment, noTopic));\r\n        }\r\n        if(keccak256(abi.encodePacked(recordData.examinationSubTopic)) == keccak256(abi.encodePacked(_examinationSubTopic)) &&\r\n        keccak256(abi.encodePacked(recordData.examinationSummary)) == keccak256(abi.encodePacked(examinationSummaryPositive))){\r\n            return string(abi.encodePacked(clmEvaluation, noPayment, positiveSexRes));\r\n        }\r\n        string memory toAccount = string(abi.encodePacked(\"\\\"toAccount\\\": \", \"\\\"\", recordData.insuredBankAccount, \"\\\" }\"));\r\n        return string(abi.encodePacked(clmEvaluation, forPayment, toAccount));\r\n    }\r\n\r\n    event LogResponse(string response);\r\n\r\n}\r\n",
  "sourcePath": "C:\\Users\\PC.PC-PC\\IdeaProjects\\blckclm\\contract\\contracts\\HealthCLMEval.sol",
  "compiler": {
    "name": "solc",
    "version": "0.5.16+commit.9c3226ce.Emscripten.clang"
  },
  "schemaVersion": "3.1.0",
  "updatedAt": "2020-05-25T07:00:39.280Z",
  "networkType": "ethereum",
  "devdoc": {
    "methods": {}
  },
  "userdoc": {
    "methods": {}
  }
}