{
  "contractName": "HealthCLMEval",
  "abi": [
    {
      "constant": false,
      "inputs": [
        {
          "internalType": "string",
          "name": "medicalResearcherId",
          "type": "string"
        },
        {
          "internalType": "string",
          "name": "insurerId",
          "type": "string"
        },
        {
          "internalType": "string",
          "name": "insuredId",
          "type": "string"
        },
        {
          "internalType": "string",
          "name": "insuredBankAccount",
          "type": "string"
        },
        {
          "internalType": "string",
          "name": "examinationId",
          "type": "string"
        },
        {
          "internalType": "string",
          "name": "examinationTopic",
          "type": "string"
        },
        {
          "internalType": "string",
          "name": "examinationSubTopic",
          "type": "string"
        },
        {
          "internalType": "string",
          "name": "examinationPrice",
          "type": "string"
        },
        {
          "internalType": "string",
          "name": "examinationSummary",
          "type": "string"
        }
      ],
      "name": "evaluate",
      "outputs": [
        {
          "internalType": "string",
          "name": "",
          "type": "string"
        }
      ],
      "payable": false,
      "stateMutability": "nonpayable",
      "type": "function"
    },
    {
      "constant": false,
      "inputs": [
        {
          "components": [
            {
              "internalType": "string",
              "name": "medicalResearcherId",
              "type": "string"
            },
            {
              "internalType": "string",
              "name": "insurerId",
              "type": "string"
            },
            {
              "internalType": "string",
              "name": "insuredId",
              "type": "string"
            },
            {
              "internalType": "string",
              "name": "insuredBankAccount",
              "type": "string"
            },
            {
              "internalType": "string",
              "name": "examinationId",
              "type": "string"
            },
            {
              "internalType": "string",
              "name": "examinationTopic",
              "type": "string"
            },
            {
              "internalType": "string",
              "name": "examinationSubTopic",
              "type": "string"
            },
            {
              "internalType": "string",
              "name": "examinationPrice",
              "type": "string"
            },
            {
              "internalType": "string",
              "name": "examinationSummary",
              "type": "string"
            }
          ],
          "internalType": "struct HealthCLMEval.HealthRq",
          "name": "recordData",
          "type": "tuple"
        }
      ],
      "name": "process",
      "outputs": [
        {
          "internalType": "string",
          "name": "",
          "type": "string"
        }
      ],
      "payable": false,
      "stateMutability": "nonpayable",
      "type": "function"
    }
  ],
  "bytecode": "0x608060405234801561001057600080fd5b50610c93806100206000396000f3fe608060405234801561001057600080fd5b50600436106100365760003560e01c8063c6276ac61461003b578063f290bee31461006b575b600080fd5b61005560048036036100509190810190610796565b61009b565b6040516100629190610a62565b60405180910390f35b61008560048036036100809190810190610934565b610110565b6040516100929190610a62565b60405180910390f35b60606100a56104ee565b8a816000018190525089816020018190525088816040018190525087816060018190525082816101000181905250838160e00181905250858160a00181905250848160c0018190525086816080018190525061010081610110565b9150509998505050505050505050565b6060806040518060400160405280600881526020017f3130303030303031000000000000000000000000000000000000000000000000815250905060606040518060400160405280600881526020017f3230303030303031000000000000000000000000000000000000000000000000815250905060606040518060400160405280600781526020017f484c545f54535400000000000000000000000000000000000000000000000000815250905060606040518060400160405280600781526020017f5345585f44495300000000000000000000000000000000000000000000000000815250905060606040518060400160405280600481526020017f54525545000000000000000000000000000000000000000000000000000000008152509050846040516020016102449190610a27565b60405160208183030381529060405280519060200120876000015160405160200161026f9190610a10565b60405160208183030381529060405280519060200120146102af57604051806060016040528060398152602001610bb960399139955050505050506104e9565b836040516020016102c09190610a27565b6040516020818303038152906040528051906020012087604001516040516020016102eb9190610a10565b604051602081830303815290604052805190602001201461032b57604051806060016040528060218152602001610bf260219139955050505050506104e9565b8260405160200161033c9190610a27565b604051602081830303815290604052805190602001208760a001516040516020016103679190610a10565b60405160208183030381529060405280519060200120146103a7576040518060600160405280602a8152602001610b8f602a9139955050505050506104e9565b816040516020016103b89190610a27565b604051602081830303815290604052805190602001208760c001516040516020016103e39190610a10565b604051602081830303815290604052805190602001201480156104565750806040516020016104129190610a27565b6040516020818303038152906040528051906020012087610100015160405160200161043e9190610a10565b60405160208183030381529060405280519060200120145b15610480576040518060600160405280603e8152602001610c13603e9139955050505050506104e9565b60606040518060400160405280601c81526020017f436c61696d5f4576616c756174696f6e3a464f525f5041594d454e540000000081525090508088606001516040516020016104d1929190610a3e565b60405160208183030381529060405296505050505050505b919050565b6040518061012001604052806060815260200160608152602001606081526020016060815260200160608152602001606081526020016060815260200160608152602001606081525090565b600082601f83011261054b57600080fd5b813561055e61055982610ab1565b610a84565b9150808252602083016020830185838301111561057a57600080fd5b610585838284610b3b565b50505092915050565b600082601f83011261059f57600080fd5b81356105b26105ad82610add565b610a84565b915080825260208301602083018583830111156105ce57600080fd5b6105d9838284610b3b565b50505092915050565b600061012082840312156105f557600080fd5b610600610120610a84565b9050600082013567ffffffffffffffff81111561061c57600080fd5b6106288482850161053a565b600083015250602082013567ffffffffffffffff81111561064857600080fd5b6106548482850161053a565b602083015250604082013567ffffffffffffffff81111561067457600080fd5b6106808482850161053a565b604083015250606082013567ffffffffffffffff8111156106a057600080fd5b6106ac8482850161053a565b606083015250608082013567ffffffffffffffff8111156106cc57600080fd5b6106d88482850161053a565b60808301525060a082013567ffffffffffffffff8111156106f857600080fd5b6107048482850161053a565b60a08301525060c082013567ffffffffffffffff81111561072457600080fd5b6107308482850161053a565b60c08301525060e082013567ffffffffffffffff81111561075057600080fd5b61075c8482850161053a565b60e08301525061010082013567ffffffffffffffff81111561077d57600080fd5b6107898482850161053a565b6101008301525092915050565b60008060008060008060008060006101208a8c0312156107b557600080fd5b60008a013567ffffffffffffffff8111156107cf57600080fd5b6107db8c828d0161058e565b99505060208a013567ffffffffffffffff8111156107f857600080fd5b6108048c828d0161058e565b98505060408a013567ffffffffffffffff81111561082157600080fd5b61082d8c828d0161058e565b97505060608a013567ffffffffffffffff81111561084a57600080fd5b6108568c828d0161058e565b96505060808a013567ffffffffffffffff81111561087357600080fd5b61087f8c828d0161058e565b95505060a08a013567ffffffffffffffff81111561089c57600080fd5b6108a88c828d0161058e565b94505060c08a013567ffffffffffffffff8111156108c557600080fd5b6108d18c828d0161058e565b93505060e08a013567ffffffffffffffff8111156108ee57600080fd5b6108fa8c828d0161058e565b9250506101008a013567ffffffffffffffff81111561091857600080fd5b6109248c828d0161058e565b9150509295985092959850929598565b60006020828403121561094657600080fd5b600082013567ffffffffffffffff81111561096057600080fd5b61096c848285016105e2565b91505092915050565b600061098082610b14565b61098a8185610b1f565b935061099a818560208601610b4a565b6109a381610b7d565b840191505092915050565b60006109b982610b14565b6109c38185610b30565b93506109d3818560208601610b4a565b80840191505092915050565b60006109ea82610b09565b6109f48185610b30565b9350610a04818560208601610b4a565b80840191505092915050565b6000610a1c82846109df565b915081905092915050565b6000610a3382846109ae565b915081905092915050565b6000610a4a82856109ae565b9150610a5682846109df565b91508190509392505050565b60006020820190508181036000830152610a7c8184610975565b905092915050565b6000604051905081810181811067ffffffffffffffff82111715610aa757600080fd5b8060405250919050565b600067ffffffffffffffff821115610ac857600080fd5b601f19601f8301169050602081019050919050565b600067ffffffffffffffff821115610af457600080fd5b601f19601f8301169050602081019050919050565b600081519050919050565b600081519050919050565b600082825260208201905092915050565b600081905092915050565b82818337600083830152505050565b60005b83811015610b68578082015181840152602081019050610b4d565b83811115610b77576000848401525b50505050565b6000601f19601f830116905091905056fe4578616d696e6174696f6e206973206e6f74206120746f706963206f66207468697320636f6e747261746d65646963616c526573656172636865724964206e6f20696e2074727573746564206d656469616c632072657365616368206964206c697374496e7375726564206e6f7420636c69656e74206f662074686520636f6d70616e794e6f207061796d656e7420666f7220706f73697469766520726573756c74206f6e20706f73697469766520726573756c747320666f72205345585f444953a365627a7a723158206f00975d593142c79468b17fdfa88118cb451e295beeb1e1e9083dce66b0ba676c6578706572696d656e74616cf564736f6c63430005100040",
  "source": "pragma solidity >= 0.5.0 < 0.7.0;\r\npragma experimental ABIEncoderV2;\r\n\r\ncontract HealthCLMEval {\r\n    struct HealthRq{\r\n        string medicalResearcherId;\r\n        string insurerId;\r\n        string insuredId;\r\n        string insuredBankAccount;\r\n        string examinationId;\r\n        string examinationTopic;\r\n        string examinationSubTopic;\r\n        string examinationPrice;\r\n        string examinationSummary;\r\n    }\r\n\r\n    function evaluate(string memory medicalResearcherId,string memory insurerId,  string memory insuredId, string memory insuredBankAccount,\r\n        string memory examinationId, string memory examinationTopic, string memory examinationSubTopic, string memory examinationPrice,\r\n        string memory examinationSummary)public returns(string memory){\r\n        HealthRq memory rq;\r\n        rq.medicalResearcherId = medicalResearcherId;\r\n        rq.insurerId = insurerId;\r\n        rq.insuredId = insuredId;\r\n        rq.insuredBankAccount = insuredBankAccount;\r\n        rq.examinationSummary = examinationSummary;\r\n        rq.examinationPrice = examinationPrice;\r\n        rq.examinationTopic = examinationTopic;\r\n        rq.examinationSubTopic = examinationSubTopic;\r\n        rq.examinationId = examinationId;\r\n        return process(rq);\r\n    }\r\n\r\n    function process(HealthRq memory recordData) public returns(string memory) {\r\n        string memory researcherId = \"10000001\";\r\n        string memory insuredId = \"20000001\";\r\n        string memory examinationTopic = \"HLT_TST\";\r\n        string memory examinationSubTopic = \"SEX_DIS\";\r\n        string memory examinationSummaryPositive = \"TRUE\";\r\n        if(keccak256(abi.encodePacked(recordData.medicalResearcherId)) != keccak256(abi.encodePacked(researcherId))){\r\n            return \"medicalResearcherId no in trusted medialc reseach id list\";\r\n        }\r\n        if(keccak256(abi.encodePacked(recordData.insuredId)) != keccak256(abi.encodePacked(insuredId))){\r\n            return \"Insured not client of the company\";\r\n        }\r\n        if(keccak256(abi.encodePacked(recordData.examinationTopic)) != keccak256(abi.encodePacked(examinationTopic))){\r\n            return \"Examination is not a topic of this contrat\";\r\n        }\r\n        if(keccak256(abi.encodePacked(recordData.examinationSubTopic)) == keccak256(abi.encodePacked(examinationSubTopic)) &&\r\n        keccak256(abi.encodePacked(recordData.examinationSummary)) == keccak256(abi.encodePacked(examinationSummaryPositive))){\r\n            return \"No payment for positive result on positive results for SEX_DIS\";\r\n        }\r\n        string memory response = \"Claim_Evaluation:FOR_PAYMENT\";\r\n        return string(abi.encodePacked(response, recordData.insuredBankAccount));\r\n    }\r\n}\r\n",
  "sourcePath": "C:\\Users\\PC.PC-PC\\IdeaProjects\\blckclm\\contract\\contracts\\HealthCLMEval.sol",
  "compiler": {
    "name": "solc",
    "version": "0.5.16+commit.9c3226ce.Emscripten.clang"
  },
  "schemaVersion": "3.1.0",
  "updatedAt": "2020-05-15T14:47:29.452Z",
  "networkType": "ethereum",
  "devdoc": {
    "methods": {}
  },
  "userdoc": {
    "methods": {}
  }
}